{
  "contractName": "RealEstateToken",
  "abi": [
    {
      "anonymous": false,
      "inputs": [
        {
          "indexed": true,
          "internalType": "address",
          "name": "owner",
          "type": "address"
        },
        {
          "indexed": true,
          "internalType": "address",
          "name": "approved",
          "type": "address"
        },
        {
          "indexed": true,
          "internalType": "uint256",
          "name": "tokenId",
          "type": "uint256"
        }
      ],
      "name": "Approval",
      "type": "event"
    },
    {
      "anonymous": false,
      "inputs": [
        {
          "indexed": true,
          "internalType": "address",
          "name": "owner",
          "type": "address"
        },
        {
          "indexed": true,
          "internalType": "address",
          "name": "operator",
          "type": "address"
        },
        {
          "indexed": false,
          "internalType": "bool",
          "name": "approved",
          "type": "bool"
        }
      ],
      "name": "ApprovalForAll",
      "type": "event"
    },
    {
      "anonymous": false,
      "inputs": [
        {
          "indexed": false,
          "internalType": "address",
          "name": "trigger",
          "type": "address"
        }
      ],
      "name": "Paused",
      "type": "event"
    },
    {
      "anonymous": false,
      "inputs": [
        {
          "indexed": true,
          "internalType": "address",
          "name": "from",
          "type": "address"
        },
        {
          "indexed": true,
          "internalType": "address",
          "name": "to",
          "type": "address"
        },
        {
          "indexed": true,
          "internalType": "uint256",
          "name": "tokenId",
          "type": "uint256"
        }
      ],
      "name": "Transfer",
      "type": "event"
    },
    {
      "anonymous": false,
      "inputs": [
        {
          "indexed": false,
          "internalType": "address",
          "name": "trigger",
          "type": "address"
        }
      ],
      "name": "Unpaused",
      "type": "event"
    },
    {
      "anonymous": false,
      "inputs": [
        {
          "indexed": false,
          "internalType": "address",
          "name": "newOwner",
          "type": "address"
        }
      ],
      "name": "ownerShipTransferred",
      "type": "event"
    },
    {
      "constant": false,
      "inputs": [
        {
          "internalType": "bytes32",
          "name": "_myid",
          "type": "bytes32"
        },
        {
          "internalType": "string",
          "name": "_result",
          "type": "string"
        }
      ],
      "name": "__callback",
      "outputs": [],
      "payable": false,
      "stateMutability": "nonpayable",
      "type": "function"
    },
    {
      "constant": false,
      "inputs": [
        {
          "internalType": "bytes32",
          "name": "_myid",
          "type": "bytes32"
        },
        {
          "internalType": "string",
          "name": "_result",
          "type": "string"
        },
        {
          "internalType": "bytes",
          "name": "_proof",
          "type": "bytes"
        }
      ],
      "name": "__callback",
      "outputs": [],
      "payable": false,
      "stateMutability": "nonpayable",
      "type": "function"
    },
    {
      "constant": true,
      "inputs": [],
      "name": "_owner",
      "outputs": [
        {
          "internalType": "address",
          "name": "",
          "type": "address"
        }
      ],
      "payable": false,
      "stateMutability": "view",
      "type": "function"
    },
    {
      "constant": false,
      "inputs": [
        {
          "internalType": "address",
          "name": "to",
          "type": "address"
        },
        {
          "internalType": "uint256",
          "name": "tokenId",
          "type": "uint256"
        }
      ],
      "name": "approve",
      "outputs": [],
      "payable": false,
      "stateMutability": "nonpayable",
      "type": "function"
    },
    {
      "constant": true,
      "inputs": [
        {
          "internalType": "address",
          "name": "owner",
          "type": "address"
        }
      ],
      "name": "balanceOf",
      "outputs": [
        {
          "internalType": "uint256",
          "name": "",
          "type": "uint256"
        }
      ],
      "payable": false,
      "stateMutability": "view",
      "type": "function"
    },
    {
      "constant": true,
      "inputs": [
        {
          "internalType": "uint256",
          "name": "tokenId",
          "type": "uint256"
        }
      ],
      "name": "getApproved",
      "outputs": [
        {
          "internalType": "address",
          "name": "",
          "type": "address"
        }
      ],
      "payable": false,
      "stateMutability": "view",
      "type": "function"
    },
    {
      "constant": true,
      "inputs": [],
      "name": "getBaseTokenURI",
      "outputs": [
        {
          "internalType": "string",
          "name": "",
          "type": "string"
        }
      ],
      "payable": false,
      "stateMutability": "view",
      "type": "function"
    },
    {
      "constant": true,
      "inputs": [],
      "name": "getOwner",
      "outputs": [
        {
          "internalType": "address",
          "name": "",
          "type": "address"
        }
      ],
      "payable": false,
      "stateMutability": "view",
      "type": "function"
    },
    {
      "constant": true,
      "inputs": [
        {
          "internalType": "address",
          "name": "owner",
          "type": "address"
        },
        {
          "internalType": "address",
          "name": "operator",
          "type": "address"
        }
      ],
      "name": "isApprovedForAll",
      "outputs": [
        {
          "internalType": "bool",
          "name": "",
          "type": "bool"
        }
      ],
      "payable": false,
      "stateMutability": "view",
      "type": "function"
    },
    {
      "constant": true,
      "inputs": [],
      "name": "name",
      "outputs": [
        {
          "internalType": "string",
          "name": "",
          "type": "string"
        }
      ],
      "payable": false,
      "stateMutability": "view",
      "type": "function"
    },
    {
      "constant": true,
      "inputs": [
        {
          "internalType": "uint256",
          "name": "tokenId",
          "type": "uint256"
        }
      ],
      "name": "ownerOf",
      "outputs": [
        {
          "internalType": "address",
          "name": "",
          "type": "address"
        }
      ],
      "payable": false,
      "stateMutability": "view",
      "type": "function"
    },
    {
      "constant": false,
      "inputs": [
        {
          "internalType": "address",
          "name": "from",
          "type": "address"
        },
        {
          "internalType": "address",
          "name": "to",
          "type": "address"
        },
        {
          "internalType": "uint256",
          "name": "tokenId",
          "type": "uint256"
        }
      ],
      "name": "safeTransferFrom",
      "outputs": [],
      "payable": false,
      "stateMutability": "nonpayable",
      "type": "function"
    },
    {
      "constant": false,
      "inputs": [
        {
          "internalType": "address",
          "name": "from",
          "type": "address"
        },
        {
          "internalType": "address",
          "name": "to",
          "type": "address"
        },
        {
          "internalType": "uint256",
          "name": "tokenId",
          "type": "uint256"
        },
        {
          "internalType": "bytes",
          "name": "_data",
          "type": "bytes"
        }
      ],
      "name": "safeTransferFrom",
      "outputs": [],
      "payable": false,
      "stateMutability": "nonpayable",
      "type": "function"
    },
    {
      "constant": false,
      "inputs": [
        {
          "internalType": "address",
          "name": "to",
          "type": "address"
        },
        {
          "internalType": "bool",
          "name": "approved",
          "type": "bool"
        }
      ],
      "name": "setApprovalForAll",
      "outputs": [],
      "payable": false,
      "stateMutability": "nonpayable",
      "type": "function"
    },
    {
      "constant": false,
      "inputs": [
        {
          "internalType": "bool",
          "name": "paused",
          "type": "bool"
        }
      ],
      "name": "setPaused",
      "outputs": [],
      "payable": false,
      "stateMutability": "nonpayable",
      "type": "function"
    },
    {
      "constant": true,
      "inputs": [
        {
          "internalType": "bytes4",
          "name": "interfaceId",
          "type": "bytes4"
        }
      ],
      "name": "supportsInterface",
      "outputs": [
        {
          "internalType": "bool",
          "name": "",
          "type": "bool"
        }
      ],
      "payable": false,
      "stateMutability": "view",
      "type": "function"
    },
    {
      "constant": true,
      "inputs": [],
      "name": "symbol",
      "outputs": [
        {
          "internalType": "string",
          "name": "",
          "type": "string"
        }
      ],
      "payable": false,
      "stateMutability": "view",
      "type": "function"
    },
    {
      "constant": true,
      "inputs": [
        {
          "internalType": "uint256",
          "name": "index",
          "type": "uint256"
        }
      ],
      "name": "tokenByIndex",
      "outputs": [
        {
          "internalType": "uint256",
          "name": "",
          "type": "uint256"
        }
      ],
      "payable": false,
      "stateMutability": "view",
      "type": "function"
    },
    {
      "constant": true,
      "inputs": [
        {
          "internalType": "address",
          "name": "owner",
          "type": "address"
        },
        {
          "internalType": "uint256",
          "name": "index",
          "type": "uint256"
        }
      ],
      "name": "tokenOfOwnerByIndex",
      "outputs": [
        {
          "internalType": "uint256",
          "name": "",
          "type": "uint256"
        }
      ],
      "payable": false,
      "stateMutability": "view",
      "type": "function"
    },
    {
      "constant": true,
      "inputs": [
        {
          "internalType": "uint256",
          "name": "tokenId",
          "type": "uint256"
        }
      ],
      "name": "tokenURI",
      "outputs": [
        {
          "internalType": "string",
          "name": "",
          "type": "string"
        }
      ],
      "payable": false,
      "stateMutability": "view",
      "type": "function"
    },
    {
      "constant": true,
      "inputs": [],
      "name": "totalSupply",
      "outputs": [
        {
          "internalType": "uint256",
          "name": "",
          "type": "uint256"
        }
      ],
      "payable": false,
      "stateMutability": "view",
      "type": "function"
    },
    {
      "constant": false,
      "inputs": [
        {
          "internalType": "address",
          "name": "from",
          "type": "address"
        },
        {
          "internalType": "address",
          "name": "to",
          "type": "address"
        },
        {
          "internalType": "uint256",
          "name": "tokenId",
          "type": "uint256"
        }
      ],
      "name": "transferFrom",
      "outputs": [],
      "payable": false,
      "stateMutability": "nonpayable",
      "type": "function"
    },
    {
      "constant": false,
      "inputs": [
        {
          "internalType": "address",
          "name": "newOwner",
          "type": "address"
        }
      ],
      "name": "transferOwnership",
      "outputs": [],
      "payable": false,
      "stateMutability": "nonpayable",
      "type": "function"
    },
    {
      "constant": false,
      "inputs": [
        {
          "internalType": "address",
          "name": "to",
          "type": "address"
        },
        {
          "internalType": "uint256",
          "name": "tokenId",
          "type": "uint256"
        }
      ],
      "name": "mint",
      "outputs": [
        {
          "internalType": "bool",
          "name": "",
          "type": "bool"
        }
      ],
      "payable": false,
      "stateMutability": "nonpayable",
      "type": "function"
    }
  ],
  "bytecode": "0x60806040526040518060400160405280600b81526020017f5265616c6573746f6b656e0000000000000000000000000000000000000000008152506040518060400160405280600381526020017f52535400000000000000000000000000000000000000000000000000000000008152506040518060600160405280603f815260200162002f72603f9139336000806101000a81548173ffffffffffffffffffffffffffffffffffffffff021916908373ffffffffffffffffffffffffffffffffffffffff1602179055507fbe847b21f54d44508de4378eb0c129af0f650b065a0bc6442a915a319fd0e3166000809054906101000a900473ffffffffffffffffffffffffffffffffffffffff16604051808273ffffffffffffffffffffffffffffffffffffffff1673ffffffffffffffffffffffffffffffffffffffff16815260200191505060405180910390a160008060146101000a81548160ff0219169083151502179055507f5db9ee0a495bf2e6ff9c91a7834c1ba4fdd244a5e8aa4e537bd38aeae4b073aa33604051808273ffffffffffffffffffffffffffffffffffffffff1673ffffffffffffffffffffffffffffffffffffffff16815260200191505060405180910390a1620001e36301ffc9a760e01b6200027f60201b60201c565b620001fb6380ac58cd60e01b6200027f60201b60201c565b6200021363780e9d6360e01b6200027f60201b60201c565b82600f90805190602001906200022b9291906200031f565b508160109080519060200190620002449291906200031f565b5080601190805190602001906200025d9291906200031f565b5062000276635b5e139f60e01b6200027f60201b60201c565b505050620003ce565b63ffffffff60e01b817bffffffffffffffffffffffffffffffffffffffffffffffffffffffff19161415620002b357600080fd5b6001806000837bffffffffffffffffffffffffffffffffffffffffffffffffffffffff19167bffffffffffffffffffffffffffffffffffffffffffffffffffffffff1916815260200190815260200160002060006101000a81548160ff02191690831515021790555050565b828054600181600116156101000203166002900490600052602060002090601f016020900481019282601f106200036257805160ff191683800117855562000393565b8280016001018555821562000393579182015b828111156200039257825182559160200191906001019062000375565b5b509050620003a29190620003a6565b5090565b620003cb91905b80821115620003c7576000816000905550600101620003ad565b5090565b90565b612b9480620003de6000396000f3fe608060405234801561001057600080fd5b50600436106101585760003560e01c80634f6ccce7116100c3578063b2bdfa7b1161007c578063b2bdfa7b14610939578063b88d4fde14610983578063bdc32be014610a88578063c87b56dd14610b0b578063e985e9c514610bb2578063f2fde38b14610c2e57610158565b80634f6ccce7146107145780636352211e1461075657806370a08231146107c4578063893d20e81461081c57806395d89b4114610866578063a22cb465146108e957610158565b806323b872dd1161011557806323b872dd1461034f57806327dc297e146103bd5780632f745c591461048257806338bbfa50146104e457806340c10f191461064057806342842e0e146106a657610158565b806301ffc9a71461015d57806306fdde03146101c2578063081812fc14610245578063095ea7b3146102b357806316c38b3c1461030157806318160ddd14610331575b600080fd5b6101a86004803603602081101561017357600080fd5b8101908080357bffffffffffffffffffffffffffffffffffffffffffffffffffffffff19169060200190929190505050610c72565b604051808215151515815260200191505060405180910390f35b6101ca610cda565b6040518080602001828103825283818151815260200191508051906020019080838360005b8381101561020a5780820151818401526020810190506101ef565b50505050905090810190601f1680156102375780820380516001836020036101000a031916815260200191505b509250505060405180910390f35b6102716004803603602081101561025b57600080fd5b8101908080359060200190929190505050610d7c565b604051808273ffffffffffffffffffffffffffffffffffffffff1673ffffffffffffffffffffffffffffffffffffffff16815260200191505060405180910390f35b6102ff600480360360408110156102c957600080fd5b81019080803573ffffffffffffffffffffffffffffffffffffffff16906020019092919080359060200190929190505050610db9565b005b61032f6004803603602081101561031757600080fd5b81019080803515159060200190929190505050610fc1565b005b610339611188565b6040518082815260200191505060405180910390f35b6103bb6004803603606081101561036557600080fd5b81019080803573ffffffffffffffffffffffffffffffffffffffff169060200190929190803573ffffffffffffffffffffffffffffffffffffffff16906020019092919080359060200190929190505050611195565b005b610480600480360360408110156103d357600080fd5b8101908080359060200190929190803590602001906401000000008111156103fa57600080fd5b82018360208201111561040c57600080fd5b8035906020019184600183028401116401000000008311171561042e57600080fd5b91908080601f016020809104026020016040519081016040528093929190818152602001838380828437600081840152601f19601f8201169050808301925050505050505091929192905050506111b8565b005b6104ce6004803603604081101561049857600080fd5b81019080803573ffffffffffffffffffffffffffffffffffffffff169060200190929190803590602001909291905050506111fb565b6040518082815260200191505060405180910390f35b61063e600480360360608110156104fa57600080fd5b81019080803590602001909291908035906020019064010000000081111561052157600080fd5b82018360208201111561053357600080fd5b8035906020019184600183028401116401000000008311171561055557600080fd5b91908080601f016020809104026020016040519081016040528093929190818152602001838380828437600081840152601f19601f820116905080830192505050505050509192919290803590602001906401000000008111156105b857600080fd5b8201836020820111156105ca57600080fd5b803590602001918460018302840111640100000000831117156105ec57600080fd5b91908080601f016020809104026020016040519081016040528093929190818152602001838380828437600081840152601f19601f82011690508083019250505050505050919291929050505061126e565b005b61068c6004803603604081101561065657600080fd5b81019080803573ffffffffffffffffffffffffffffffffffffffff16906020019092919080359060200190929190505050611273565b604051808215151515815260200191505060405180910390f35b610712600480360360608110156106bc57600080fd5b81019080803573ffffffffffffffffffffffffffffffffffffffff169060200190929190803573ffffffffffffffffffffffffffffffffffffffff16906020019092919080359060200190929190505050611337565b005b6107406004803603602081101561072a57600080fd5b8101908080359060200190929190505050611357565b6040518082815260200191505060405180910390f35b6107826004803603602081101561076c57600080fd5b810190808035906020019092919050505061138b565b604051808273ffffffffffffffffffffffffffffffffffffffff1673ffffffffffffffffffffffffffffffffffffffff16815260200191505060405180910390f35b610806600480360360208110156107da57600080fd5b81019080803573ffffffffffffffffffffffffffffffffffffffff1690602001909291905050506113c8565b6040518082815260200191505060405180910390f35b6108246113e9565b604051808273ffffffffffffffffffffffffffffffffffffffff1673ffffffffffffffffffffffffffffffffffffffff16815260200191505060405180910390f35b61086e611412565b6040518080602001828103825283818151815260200191508051906020019080838360005b838110156108ae578082015181840152602081019050610893565b50505050905090810190601f1680156108db5780820380516001836020036101000a031916815260200191505b509250505060405180910390f35b610937600480360360408110156108ff57600080fd5b81019080803573ffffffffffffffffffffffffffffffffffffffff1690602001909291908035151590602001909291905050506114b4565b005b6109416115ee565b604051808273ffffffffffffffffffffffffffffffffffffffff1673ffffffffffffffffffffffffffffffffffffffff16815260200191505060405180910390f35b610a866004803603608081101561099957600080fd5b81019080803573ffffffffffffffffffffffffffffffffffffffff169060200190929190803573ffffffffffffffffffffffffffffffffffffffff1690602001909291908035906020019092919080359060200190640100000000811115610a0057600080fd5b820183602082011115610a1257600080fd5b80359060200191846001830284011164010000000083111715610a3457600080fd5b91908080601f016020809104026020016040519081016040528093929190818152602001838380828437600081840152601f19601f820116905080830192505050505050509192919290505050611613565b005b610a90611639565b6040518080602001828103825283818151815260200191508051906020019080838360005b83811015610ad0578082015181840152602081019050610ab5565b50505050905090810190601f168015610afd5780820380516001836020036101000a031916815260200191505b509250505060405180910390f35b610b3760048036036020811015610b2157600080fd5b81019080803590602001909291905050506116db565b6040518080602001828103825283818151815260200191508051906020019080838360005b83811015610b77578082015181840152602081019050610b5c565b50505050905090810190601f168015610ba45780820380516001836020036101000a031916815260200191505b509250505060405180910390f35b610c1460048036036040811015610bc857600080fd5b81019080803573ffffffffffffffffffffffffffffffffffffffff169060200190929190803573ffffffffffffffffffffffffffffffffffffffff1690602001909291905050506117a2565b604051808215151515815260200191505060405180910390f35b610c7060048036036020811015610c4457600080fd5b81019080803573ffffffffffffffffffffffffffffffffffffffff169060200190929190505050611836565b005b600060016000837bffffffffffffffffffffffffffffffffffffffffffffffffffffffff19167bffffffffffffffffffffffffffffffffffffffffffffffffffffffff1916815260200190815260200160002060009054906101000a900460ff169050919050565b6060600f8054600181600116156101000203166002900480601f016020809104026020016040519081016040528092919081815260200182805460018160011615610100020316600290048015610d725780601f10610d4757610100808354040283529160200191610d72565b820191906000526020600020905b815481529060010190602001808311610d5557829003601f168201915b5050505050905090565b60006003600083815260200190815260200160002060009054906101000a900473ffffffffffffffffffffffffffffffffffffffff169050919050565b610dc28161138b565b73ffffffffffffffffffffffffffffffffffffffff168273ffffffffffffffffffffffffffffffffffffffff161415610e46576040517f08c379a0000000000000000000000000000000000000000000000000000000008152600401808060200182810382526034815260200180612afd6034913960400191505060405180910390fd5b3373ffffffffffffffffffffffffffffffffffffffff16610e668261138b565b73ffffffffffffffffffffffffffffffffffffffff161480610e965750610e95610e8f8261138b565b336117a2565b5b610f08576040517f08c379a000000000000000000000000000000000000000000000000000000000815260040180806020018281038252601b8152602001807f4e6f7420746865206f776e6572206f662074686520746f6b656e2e000000000081525060200191505060405180910390fd5b816003600083815260200190815260200160002060006101000a81548173ffffffffffffffffffffffffffffffffffffffff021916908373ffffffffffffffffffffffffffffffffffffffff160217905550808273ffffffffffffffffffffffffffffffffffffffff16610f7b8361138b565b73ffffffffffffffffffffffffffffffffffffffff167f8c5be1e5ebec7d5bd14f71427d1e84f3dd0314c0f7b2291e5b200ac8c7c3b92560405160405180910390a45050565b6000809054906101000a900473ffffffffffffffffffffffffffffffffffffffff1673ffffffffffffffffffffffffffffffffffffffff163373ffffffffffffffffffffffffffffffffffffffff1614611066576040517f08c379a000000000000000000000000000000000000000000000000000000000815260040180806020018281038252602f815260200180612aa8602f913960400191505060405180910390fd5b80600060146101000a81548160ff02191690831515021790555060011515600060149054906101000a900460ff1615151415611104577f62e78cea01bee320cd4e420270b5ea74000d11b0c9f74754ebdbfc544b05a25833604051808273ffffffffffffffffffffffffffffffffffffffff1673ffffffffffffffffffffffffffffffffffffffff16815260200191505060405180910390a1611185565b60001515600060149054906101000a900460ff1615151415611184577f5db9ee0a495bf2e6ff9c91a7834c1ba4fdd244a5e8aa4e537bd38aeae4b073aa33604051808273ffffffffffffffffffffffffffffffffffffffff1673ffffffffffffffffffffffffffffffffffffffff16815260200191505060405180910390a15b5b50565b6000600880549050905090565b61119f3382611981565b6111a857600080fd5b6111b3838383611a16565b505050565b6111f7828260006040519080825280601f01601f1916602001820160405280156111f15781602001600182028038833980820191505090505b5061126e565b5050565b6000611206836113c8565b821061121157600080fd5b600660008473ffffffffffffffffffffffffffffffffffffffff1673ffffffffffffffffffffffffffffffffffffffff168152602001908152602001600020828154811061125b57fe5b9060005260206000200154905092915050565b505050565b60008060009054906101000a900473ffffffffffffffffffffffffffffffffffffffff1673ffffffffffffffffffffffffffffffffffffffff163373ffffffffffffffffffffffffffffffffffffffff161461131a576040517f08c379a000000000000000000000000000000000000000000000000000000000815260040180806020018281038252602f815260200180612aa8602f913960400191505060405180910390fd5b6113248383611a3a565b61132d82611a5b565b6001905092915050565b61135283838360405180602001604052806000815250611613565b505050565b6000611361611188565b821061136c57600080fd5b6008828154811061137957fe5b90600052602060002001549050919050565b60006002600083815260200190815260200160002060009054906101000a900473ffffffffffffffffffffffffffffffffffffffff169050919050565b60008173ffffffffffffffffffffffffffffffffffffffff16319050919050565b60008060009054906101000a900473ffffffffffffffffffffffffffffffffffffffff16905090565b606060108054600181600116156101000203166002900480601f0160208091040260200160405190810160405280929190818152602001828054600181600116156101000203166002900480156114aa5780601f1061147f576101008083540402835291602001916114aa565b820191906000526020600020905b81548152906001019060200180831161148d57829003601f168201915b5050505050905090565b3373ffffffffffffffffffffffffffffffffffffffff168273ffffffffffffffffffffffffffffffffffffffff1614156114ed57600080fd5b80600560003373ffffffffffffffffffffffffffffffffffffffff1673ffffffffffffffffffffffffffffffffffffffff16815260200190815260200160002060008473ffffffffffffffffffffffffffffffffffffffff1673ffffffffffffffffffffffffffffffffffffffff16815260200190815260200160002060006101000a81548160ff0219169083151502179055508173ffffffffffffffffffffffffffffffffffffffff163373ffffffffffffffffffffffffffffffffffffffff167f17307eab39ab6107e8899845ad3d59bd9653f200f220920489ca2b5937696c3183604051808215151515815260200191505060405180910390a35050565b6000809054906101000a900473ffffffffffffffffffffffffffffffffffffffff1681565b61161e848484611195565b61162a84848484611b43565b61163357600080fd5b50505050565b606060118054600181600116156101000203166002900480601f0160208091040260200160405190810160405280929190818152602001828054600181600116156101000203166002900480156116d15780601f106116a6576101008083540402835291602001916116d1565b820191906000526020600020905b8154815290600101906020018083116116b457829003601f168201915b5050505050905090565b60606116e682611d2c565b6116ef57600080fd5b601260008381526020019081526020016000208054600181600116156101000203166002900480601f0160208091040260200160405190810160405280929190818152602001828054600181600116156101000203166002900480156117965780601f1061176b57610100808354040283529160200191611796565b820191906000526020600020905b81548152906001019060200180831161177957829003601f168201915b50505050509050919050565b6000600560008473ffffffffffffffffffffffffffffffffffffffff1673ffffffffffffffffffffffffffffffffffffffff16815260200190815260200160002060008373ffffffffffffffffffffffffffffffffffffffff1673ffffffffffffffffffffffffffffffffffffffff16815260200190815260200160002060009054906101000a900460ff16905092915050565b6000809054906101000a900473ffffffffffffffffffffffffffffffffffffffff1673ffffffffffffffffffffffffffffffffffffffff163373ffffffffffffffffffffffffffffffffffffffff16146118db576040517f08c379a000000000000000000000000000000000000000000000000000000000815260040180806020018281038252602f815260200180612aa8602f913960400191505060405180910390fd5b806000806101000a81548173ffffffffffffffffffffffffffffffffffffffff021916908373ffffffffffffffffffffffffffffffffffffffff1602179055507fbe847b21f54d44508de4378eb0c129af0f650b065a0bc6442a915a319fd0e31681604051808273ffffffffffffffffffffffffffffffffffffffff1673ffffffffffffffffffffffffffffffffffffffff16815260200191505060405180910390a150565b60008061198d8361138b565b90508073ffffffffffffffffffffffffffffffffffffffff168473ffffffffffffffffffffffffffffffffffffffff1614806119fc57508373ffffffffffffffffffffffffffffffffffffffff166119e484610d7c565b73ffffffffffffffffffffffffffffffffffffffff16145b80611a0d5750611a0c81856117a2565b5b91505092915050565b611a21838383611d9e565b611a2b8382612032565b611a3582826121d0565b505050565b611a448282612297565b611a4e82826121d0565b611a57816123c9565b5050565b611a6481611d2c565b611a6d57600080fd5b611b1960118054600181600116156101000203166002900480601f016020809104026020016040519081016040528092919081815260200182805460018160011615610100020316600290048015611b065780601f10611adb57610100808354040283529160200191611b06565b820191906000526020600020905b815481529060010190602001808311611ae957829003601f168201915b5050505050611b1483612415565b612542565b601260008381526020019081526020016000209080519060200190611b3f9291906129d6565b5050565b6000611b648473ffffffffffffffffffffffffffffffffffffffff16612586565b611b715760019050611d24565b60008473ffffffffffffffffffffffffffffffffffffffff1663150b7a02338887876040518563ffffffff1660e01b8152600401808573ffffffffffffffffffffffffffffffffffffffff1673ffffffffffffffffffffffffffffffffffffffff1681526020018473ffffffffffffffffffffffffffffffffffffffff1673ffffffffffffffffffffffffffffffffffffffff16815260200183815260200180602001828103825283818151815260200191508051906020019080838360005b83811015611c4c578082015181840152602081019050611c31565b50505050905090810190601f168015611c795780820380516001836020036101000a031916815260200191505b5095505050505050602060405180830381600087803b158015611c9b57600080fd5b505af1158015611caf573d6000803e3d6000fd5b505050506040513d6020811015611cc557600080fd5b8101908080519060200190929190505050905063150b7a0260e01b7bffffffffffffffffffffffffffffffffffffffffffffffffffffffff1916817bffffffffffffffffffffffffffffffffffffffffffffffffffffffff1916149150505b949350505050565b6000806002600084815260200190815260200160002060009054906101000a900473ffffffffffffffffffffffffffffffffffffffff169050600073ffffffffffffffffffffffffffffffffffffffff168173ffffffffffffffffffffffffffffffffffffffff161415915050919050565b8273ffffffffffffffffffffffffffffffffffffffff16611dbe8261138b565b73ffffffffffffffffffffffffffffffffffffffff1614611e2a576040517f08c379a000000000000000000000000000000000000000000000000000000000815260040180806020018281038252602f815260200180612b31602f913960400191505060405180910390fd5b611e498273ffffffffffffffffffffffffffffffffffffffff16612586565b15611e9f576040517f08c379a0000000000000000000000000000000000000000000000000000000008152600401808060200182810382526026815260200180612ad76026913960400191505060405180910390fd5b60006003600083815260200190815260200160002060006101000a81548173ffffffffffffffffffffffffffffffffffffffff021916908373ffffffffffffffffffffffffffffffffffffffff160217905550611f39600460008573ffffffffffffffffffffffffffffffffffffffff1673ffffffffffffffffffffffffffffffffffffffff1681526020019081526020016000206125d1565b611f80600460008473ffffffffffffffffffffffffffffffffffffffff1673ffffffffffffffffffffffffffffffffffffffff1681526020019081526020016000206125e7565b816002600083815260200190815260200160002060006101000a81548173ffffffffffffffffffffffffffffffffffffffff021916908373ffffffffffffffffffffffffffffffffffffffff160217905550808273ffffffffffffffffffffffffffffffffffffffff168473ffffffffffffffffffffffffffffffffffffffff167fddf252ad1be2c89b69c2b068fc378daa952ba7f163c4a11628f55a4df523b3ef60405160405180910390a4505050565b600061208a6001600660008673ffffffffffffffffffffffffffffffffffffffff1673ffffffffffffffffffffffffffffffffffffffff1681526020019081526020016000208054905061260a90919063ffffffff16565b9050600060076000848152602001908152602001600020549050818114612177576000600660008673ffffffffffffffffffffffffffffffffffffffff1673ffffffffffffffffffffffffffffffffffffffff16815260200190815260200160002083815481106120f757fe5b9060005260206000200154905080600660008773ffffffffffffffffffffffffffffffffffffffff1673ffffffffffffffffffffffffffffffffffffffff168152602001908152602001600020838154811061214f57fe5b9060005260206000200181905550816007600083815260200190815260200160002081905550505b600660008573ffffffffffffffffffffffffffffffffffffffff1673ffffffffffffffffffffffffffffffffffffffff1681526020019081526020016000208054809190600190036121c99190612a56565b5050505050565b600660008373ffffffffffffffffffffffffffffffffffffffff1673ffffffffffffffffffffffffffffffffffffffff168152602001908152602001600020805490506007600083815260200190815260200160002081905550600660008373ffffffffffffffffffffffffffffffffffffffff1673ffffffffffffffffffffffffffffffffffffffff1681526020019081526020016000208190806001815401808255809150509060018203906000526020600020016000909192909190915055505050565b6122a081611d2c565b15806122c757506122c68273ffffffffffffffffffffffffffffffffffffffff16612586565b5b156122d157600080fd5b816002600083815260200190815260200160002060006101000a81548173ffffffffffffffffffffffffffffffffffffffff021916908373ffffffffffffffffffffffffffffffffffffffff16021790555061236a600460008473ffffffffffffffffffffffffffffffffffffffff1673ffffffffffffffffffffffffffffffffffffffff1681526020019081526020016000206125d1565b808273ffffffffffffffffffffffffffffffffffffffff163373ffffffffffffffffffffffffffffffffffffffff167fddf252ad1be2c89b69c2b068fc378daa952ba7f163c4a11628f55a4df523b3ef60405160405180910390a45050565b6008805490506009600083815260200190815260200160002081905550600881908060018154018082558091505090600182039060005260206000200160009091929091909150555050565b6060600082141561245d576040518060400160405280600181526020017f3000000000000000000000000000000000000000000000000000000000000000815250905061253d565b600082905060005b60008214612487578080600101915050600a828161247f57fe5b049150612465565b6060816040519080825280601f01601f1916602001820160405280156124bc5781602001600182028038833980820191505090505b50905060006001830390505b6000861461253557600a86816124da57fe5b0660300160f81b828280600190039350815181106124f457fe5b60200101907effffffffffffffffffffffffffffffffffffffffffffffffffffffffffffff1916908160001a905350600a868161252d57fe5b0495506124c8565b819450505050505b919050565b606061257e8383604051806020016040528060008152506040518060200160405280600081525060405180602001604052806000815250612654565b905092915050565b60008060007fc5d2460186f7233c927e7db2dcc703c0e500b653ca82273b7bfad8045d85a47060001b9050833f91508082141580156125c857506000801b8214155b92505050919050565b6001816000016000828254019250508190555050565b6125ff6001826000015461260a90919063ffffffff16565b816000018190555050565b600061264c83836040518060400160405280601e81526020017f536166654d6174683a207375627472616374696f6e206f766572666c6f770000815250612916565b905092915050565b6060808690506060869050606086905060608690506060869050606081518351855187518951010101016040519080825280601f01601f1916602001820160405280156126b05781602001600182028038833980820191505090505b509050606081905060008090506000809050600090505b8851811015612735578881815181106126dc57fe5b602001015160f81c60f81b8383806001019450815181106126f957fe5b60200101907effffffffffffffffffffffffffffffffffffffffffffffffffffffffffffff1916908160001a90535080806001019150506126c7565b600090505b87518110156127a85787818151811061274f57fe5b602001015160f81c60f81b83838060010194508151811061276c57fe5b60200101907effffffffffffffffffffffffffffffffffffffffffffffffffffffffffffff1916908160001a905350808060010191505061273a565b600090505b865181101561281b578681815181106127c257fe5b602001015160f81c60f81b8383806001019450815181106127df57fe5b60200101907effffffffffffffffffffffffffffffffffffffffffffffffffffffffffffff1916908160001a90535080806001019150506127ad565b600090505b855181101561288e5785818151811061283557fe5b602001015160f81c60f81b83838060010194508151811061285257fe5b60200101907effffffffffffffffffffffffffffffffffffffffffffffffffffffffffffff1916908160001a9053508080600101915050612820565b600090505b8451811015612901578481815181106128a857fe5b602001015160f81c60f81b8383806001019450815181106128c557fe5b60200101907effffffffffffffffffffffffffffffffffffffffffffffffffffffffffffff1916908160001a9053508080600101915050612893565b82995050505050505050505095945050505050565b60008383111582906129c3576040517f08c379a00000000000000000000000000000000000000000000000000000000081526004018080602001828103825283818151815260200191508051906020019080838360005b8381101561298857808201518184015260208101905061296d565b50505050905090810190601f1680156129b55780820380516001836020036101000a031916815260200191505b509250505060405180910390fd5b5060008385039050809150509392505050565b828054600181600116156101000203166002900490600052602060002090601f016020900481019282601f10612a1757805160ff1916838001178555612a45565b82800160010185558215612a45579182015b82811115612a44578251825591602001919060010190612a29565b5b509050612a529190612a82565b5090565b815481835581811115612a7d57818360005260206000209182019101612a7c9190612a82565b5b505050565b612aa491905b80821115612aa0576000816000905550600101612a88565b5090565b9056fe49732063616c6c656420627920616e6f74686572206163636f756e742c20616e64206e6f7420746865206f776e65727468652064657374696e6174696f6e206973206e6f7420612076616c6964206164647265737374686520676976656e206164647265737320746f206e6f7420626520746865206f776e6572206f662074686520746f6b656e49647468652061646472657373206973206e6f7420746865206f776e6572206f662074686520676976656e20746f6b656ea265627a7a723158205c8217557afa02ef3f7a27872017c5710031b77382150778a48a00fe2ba19d0164736f6c6343000511003268747470733a2f2f73332d75732d776573742d322e616d617a6f6e6177732e636f6d2f756461636974792d626c6f636b636861696e2f63617073746f6e652f",
  "source": "pragma solidity ^0.5.0;\r\n\r\nimport 'openzeppelin-solidity/contracts/utils/Address.sol';\r\nimport 'openzeppelin-solidity/contracts/drafts/Counters.sol';\r\nimport 'openzeppelin-solidity/contracts/math/SafeMath.sol';\r\nimport 'openzeppelin-solidity/contracts/token/ERC721/IERC721Receiver.sol';\r\nimport \"./Oraclize.sol\";\r\n\r\ncontract Ownable {\r\n    //  TODO's\r\n    //  1) create a private '_owner' variable of type address with a public getter function\r\n    address public _owner;\r\n\r\n    function getOwner() public view returns (address){\r\n        return _owner;\r\n    }\r\n    //  2) create an internal constructor that sets the _owner var to the creater of the contract\r\n    constructor() public\r\n    {\r\n        _owner = msg.sender;\r\n        emit ownerShipTransferred(_owner);\r\n    }\r\n    //  3) create an 'onlyOwner' modifier that throws if called by any account other than the owner.\r\n    modifier onlyOwner()\r\n    {\r\n        require(msg.sender == _owner, \"Is called by another account, and not the owner\");\r\n        _;\r\n    }\r\n    //  4) fill out the transferOwnership function\r\n    function transferOwnership(address newOwner) public onlyOwner {\r\n        // TODO add functionality to transfer control of the contract to a newOwner.\r\n        // make sure the new owner is a real address\r\n        _owner = newOwner;\r\n        emit ownerShipTransferred(newOwner);\r\n    }\r\n\r\n    //  5) create an event that emits anytime ownerShip is transfered (including in the constructor)\r\n    event ownerShipTransferred(address newOwner);\r\n}\r\n\r\n//  TODO's: Create a Pausable contract that inherits from the Ownable contract\r\ncontract Pausable is Ownable {\r\n    //  1) create a private '_paused' variable of type bool\r\n    bool private _paused;\r\n\r\n    //  2) create a public setter using the inherited onlyOwner modifier\r\n    function setPaused(bool paused) public onlyOwner {\r\n        _paused = paused;\r\n\r\n        if (_paused == true) {\r\n            emit Paused(msg.sender);\r\n        } else if (_paused == false) {\r\n            emit Unpaused(msg.sender);\r\n        }\r\n    }\r\n    //  3) create an internal constructor that sets the _paused variable to false\r\n    constructor() internal\r\n    {\r\n        _paused = false;\r\n        emit Unpaused(msg.sender);\r\n    }\r\n    //  4) create 'whenNotPaused' & 'paused' modifier that throws in the appropriate situation\r\n    modifier whenNotPaused()\r\n    {\r\n        require(_paused == true, \"Contract currently paused\");\r\n        _;\r\n    }\r\n\r\n    modifier paused()\r\n    {\r\n        require(_paused == false, \"Contract currently not paused\");\r\n        _;\r\n    }\r\n\r\n    //  5) create a Paused & Unpaused event that emits the address that triggered the event\r\n    event Paused(address trigger);\r\n    event Unpaused(address trigger);\r\n}\r\n\r\ncontract ERC165 {\r\n    bytes4 private constant _INTERFACE_ID_ERC165 = 0x01ffc9a7;\r\n    /*\r\n     * 0x01ffc9a7 ===\r\n     *     bytes4(keccak256('supportsInterface(bytes4)'))\r\n     */\r\n\r\n    /**\r\n     * @dev a mapping of interface id to whether or not it's supported\r\n     */\r\n    mapping(bytes4 => bool) private _supportedInterfaces;\r\n\r\n    /**\r\n     * @dev A contract implementing SupportsInterfaceWithLookup\r\n     * implement ERC165 itself\r\n     */\r\n    constructor () internal {\r\n        _registerInterface(_INTERFACE_ID_ERC165);\r\n    }\r\n\r\n    /**\r\n     * @dev implement supportsInterface(bytes4) using a lookup table\r\n     */\r\n    function supportsInterface(bytes4 interfaceId) external view returns (bool) {\r\n        return _supportedInterfaces[interfaceId];\r\n    }\r\n\r\n    /**\r\n     * @dev internal method for registering an interface\r\n     */\r\n    function _registerInterface(bytes4 interfaceId) internal {\r\n        require(interfaceId != 0xffffffff);\r\n        _supportedInterfaces[interfaceId] = true;\r\n    }\r\n}\r\n\r\ncontract ERC721 is Pausable, ERC165 {\r\n\r\n    event Transfer(address indexed from, address indexed to, uint256 indexed tokenId);\r\n\r\n    event Approval(address indexed owner, address indexed approved, uint256 indexed tokenId);\r\n\r\n    event ApprovalForAll(address indexed owner, address indexed operator, bool approved);\r\n    \r\n    using SafeMath for uint256;\r\n    using Address for address;\r\n    using Counters for Counters.Counter;\r\n\r\n    // Equals to `bytes4(keccak256(\"onERC721Received(address,address,uint256,bytes)\"))`\r\n    // which can be also obtained as `IERC721Receiver(0).onERC721Received.selector`\r\n    bytes4 private constant _ERC721_RECEIVED = 0x150b7a02;\r\n\r\n    // Mapping from token ID to owner\r\n    mapping (uint256 => address) private _tokenOwner;\r\n\r\n    // Mapping from token ID to approved address\r\n    mapping (uint256 => address) private _tokenApprovals;\r\n\r\n    // Mapping from owner to number of owned token\r\n    // IMPORTANT: this mapping uses Counters lib which is used to protect overflow when incrementing/decrementing a uint\r\n    // use the following functions when interacting with Counters: increment(), decrement(), and current() to get the value\r\n    // see: https://github.com/OpenZeppelin/openzeppelin-solidity/blob/master/contracts/drafts/Counters.sol\r\n    mapping (address => Counters.Counter) private _ownedTokensCount;\r\n\r\n    // Mapping from owner to operator approvals\r\n    mapping (address => mapping (address => bool)) private _operatorApprovals;\r\n\r\n    bytes4 private constant _INTERFACE_ID_ERC721 = 0x80ac58cd;\r\n\r\n    constructor () public {\r\n        // register the supported interfaces to conform to ERC721 via ERC165\r\n        _registerInterface(_INTERFACE_ID_ERC721);\r\n    }\r\n\r\n    function balanceOf(address owner) public view returns (uint256) {\r\n        // TODO return the token balance of given address\r\n        return owner.balance;\r\n        // TIP: remember the functions to use for Counters. you can refresh yourself with the link above\r\n    }\r\n\r\n    function ownerOf(uint256 tokenId) public view returns (address) {\r\n        // TODO return the owner of the given tokenId\r\n        return _tokenOwner[tokenId];\r\n    }\r\n\r\n    // @dev Approves another address to transfer the given token ID\r\n    function approve(address to, uint256 tokenId) public {\r\n        // TODO require the given address to not be the owner of the tokenId\r\n        require(to != ownerOf(tokenId), \"the given address to not be the owner of the tokenId\");\r\n        // TODO require the msg sender to be the owner of the contract or isApprovedForAll() to be true\r\n        require((ownerOf(tokenId) == msg.sender) || (isApprovedForAll(ownerOf(tokenId), msg.sender)), \"Not the owner of the token.\");\r\n        // TODO add 'to' address to token approvals\r\n        _tokenApprovals[tokenId] = to;\r\n        // TODO emit Approval Event\r\n        emit Approval(ownerOf(tokenId), to, tokenId);\r\n    }\r\n\r\n    function getApproved(uint256 tokenId) public view returns (address) {\r\n        // TODO return token approval if it exists\r\n        // check it? ToDo: whats up\r\n        return _tokenApprovals[tokenId];\r\n    }\r\n\r\n    /**\r\n     * @dev Sets or unsets the approval of a given operator\r\n     * An operator is allowed to transfer all tokens of the sender on their behalf\r\n     * @param to operator address to set the approval\r\n     * @param approved representing the status of the approval to be set\r\n     */\r\n    function setApprovalForAll(address to, bool approved) public {\r\n        require(to != msg.sender);\r\n        _operatorApprovals[msg.sender][to] = approved;\r\n        emit ApprovalForAll(msg.sender, to, approved);\r\n    }\r\n\r\n    /**\r\n     * @dev Tells whether an operator is approved by a given owner\r\n     * @param owner owner address which you want to query the approval of\r\n     * @param operator operator address which you want to query the approval of\r\n     * @return bool whether the given operator is approved by the given owner\r\n     */\r\n    function isApprovedForAll(address owner, address operator) public view returns (bool) {\r\n        return _operatorApprovals[owner][operator];\r\n    }\r\n\r\n    function transferFrom(address from, address to, uint256 tokenId) public {\r\n        require(_isApprovedOrOwner(msg.sender, tokenId));\r\n\r\n        _transferFrom(from, to, tokenId);\r\n    }\r\n\r\n    function safeTransferFrom(address from, address to, uint256 tokenId) public {\r\n        safeTransferFrom(from, to, tokenId, \"\");\r\n    }\r\n\r\n    function safeTransferFrom(address from, address to, uint256 tokenId, bytes memory _data) public {\r\n        transferFrom(from, to, tokenId);\r\n        require(_checkOnERC721Received(from, to, tokenId, _data));\r\n    }\r\n\r\n    /**\r\n     * @dev Returns whether the specified token exists\r\n     * @param tokenId uint256 ID of the token to query the existence of\r\n     * @return bool whether the token exists\r\n     */\r\n    function _exists(uint256 tokenId) internal view returns (bool) {\r\n        address owner = _tokenOwner[tokenId];\r\n        return owner != address(0);\r\n    }\r\n\r\n    /**\r\n     * @dev Returns whether the given spender can transfer a given token ID\r\n     * @param spender address of the spender to query\r\n     * @param tokenId uint256 ID of the token to be transferred\r\n     * @return bool whether the msg.sender is approved for the given token ID,\r\n     * is an operator of the owner, or is the owner of the token\r\n     */\r\n    function _isApprovedOrOwner(address spender, uint256 tokenId) internal view returns (bool) {\r\n        address owner = ownerOf(tokenId);\r\n        return (spender == owner || getApproved(tokenId) == spender || isApprovedForAll(owner, spender));\r\n    }\r\n\r\n    // @dev Internal function to mint a new token\r\n    // TIP: remember the functions to use for Counters. you can refresh yourself with the link above\r\n    function _mint(address to, uint256 tokenId) internal {\r\n        // TODO revert if given tokenId already exists or given address is invalid\r\n        if(!_exists(tokenId) || to.isContract())\r\n        {\r\n            revert();\r\n        }\r\n        // TODO mint tokenId to given address & increase token count of owner\r\n        _tokenOwner[tokenId] = to;\r\n        _ownedTokensCount[to].increment();\r\n\r\n        // TODO emit Transfer event\r\n        emit Transfer(msg.sender, to, tokenId);\r\n    }\r\n\r\n    // @dev Internal function to transfer ownership of a given token ID to another address.\r\n    // TIP: remember the functions to use for Counters. you can refresh yourself with the link above\r\n    function _transferFrom(address from, address to, uint256 tokenId) internal {\r\n        // TODO: require from address is the owner of the given token\r\n        require(ownerOf(tokenId) == from, \"the address is not the owner of the given token\");\r\n\r\n        // TODO: require token is being transfered to valid address\r\n        require(!to.isContract(), \"the destination is not a valid address\");\r\n        \r\n        // TODO: clear approval\r\n        _tokenApprovals[tokenId] = address(0);\r\n\r\n        // TODO: update token counts & transfer ownership of the token ID \r\n        _ownedTokensCount[from].increment();\r\n        _ownedTokensCount[to].decrement();\r\n        _tokenOwner[tokenId] = to;\r\n\r\n        // TODO: emit correct event\r\n        emit Transfer(from, to, tokenId);\r\n    }\r\n\r\n    /**\r\n     * @dev Internal function to invoke `onERC721Received` on a target address\r\n     * The call is not executed if the target address is not a contract\r\n     * @param from address representing the previous owner of the given token ID\r\n     * @param to target address that will receive the tokens\r\n     * @param tokenId uint256 ID of the token to be transferred\r\n     * @param _data bytes optional data to send along with the call\r\n     * @return bool whether the call correctly returned the expected magic value\r\n     */\r\n    function _checkOnERC721Received(address from, address to, uint256 tokenId, bytes memory _data)\r\n        internal returns (bool)\r\n    {\r\n        if (!to.isContract()) {\r\n            return true;\r\n        }\r\n\r\n        bytes4 retval = IERC721Receiver(to).onERC721Received(msg.sender, from, tokenId, _data);\r\n        return (retval == _ERC721_RECEIVED);\r\n    }\r\n\r\n    // @dev Private function to clear current approval of a given token ID\r\n    function _clearApproval(uint256 tokenId) private {\r\n        if (_tokenApprovals[tokenId] != address(0)) {\r\n            _tokenApprovals[tokenId] = address(0);\r\n        }\r\n    }\r\n}\r\n\r\ncontract ERC721Enumerable is ERC165, ERC721 {\r\n    // Mapping from owner to list of owned token IDs\r\n    mapping(address => uint256[]) private _ownedTokens;\r\n\r\n    // Mapping from token ID to index of the owner tokens list\r\n    mapping(uint256 => uint256) private _ownedTokensIndex;\r\n\r\n    // Array with all token ids, used for enumeration\r\n    uint256[] private _allTokens;\r\n\r\n    // Mapping from token id to position in the allTokens array\r\n    mapping(uint256 => uint256) private _allTokensIndex;\r\n\r\n    bytes4 private constant _INTERFACE_ID_ERC721_ENUMERABLE = 0x780e9d63;\r\n    /*\r\n     * 0x780e9d63 ===\r\n     *     bytes4(keccak256('totalSupply()')) ^\r\n     *     bytes4(keccak256('tokenOfOwnerByIndex(address,uint256)')) ^\r\n     *     bytes4(keccak256('tokenByIndex(uint256)'))\r\n     */\r\n\r\n    /**\r\n     * @dev Constructor function\r\n     */\r\n    constructor () public {\r\n        // register the supported interface to conform to ERC721Enumerable via ERC165\r\n        _registerInterface(_INTERFACE_ID_ERC721_ENUMERABLE);\r\n    }\r\n\r\n    /**\r\n     * @dev Gets the token ID at a given index of the tokens list of the requested owner\r\n     * @param owner address owning the tokens list to be accessed\r\n     * @param index uint256 representing the index to be accessed of the requested tokens list\r\n     * @return uint256 token ID at the given index of the tokens list owned by the requested address\r\n     */\r\n    function tokenOfOwnerByIndex(address owner, uint256 index) public view returns (uint256) {\r\n        require(index < balanceOf(owner));\r\n        return _ownedTokens[owner][index];\r\n    }\r\n\r\n    /**\r\n     * @dev Gets the total amount of tokens stored by the contract\r\n     * @return uint256 representing the total amount of tokens\r\n     */\r\n    function totalSupply() public view returns (uint256) {\r\n        return _allTokens.length;\r\n    }\r\n\r\n    /**\r\n     * @dev Gets the token ID at a given index of all the tokens in this contract\r\n     * Reverts if the index is greater or equal to the total number of tokens\r\n     * @param index uint256 representing the index to be accessed of the tokens list\r\n     * @return uint256 token ID at the given index of the tokens list\r\n     */\r\n    function tokenByIndex(uint256 index) public view returns (uint256) {\r\n        require(index < totalSupply());\r\n        return _allTokens[index];\r\n    }\r\n\r\n    /**\r\n     * @dev Internal function to transfer ownership of a given token ID to another address.\r\n     * As opposed to transferFrom, this imposes no restrictions on msg.sender.\r\n     * @param from current owner of the token\r\n     * @param to address to receive the ownership of the given token ID\r\n     * @param tokenId uint256 ID of the token to be transferred\r\n     */\r\n    function _transferFrom(address from, address to, uint256 tokenId) internal {\r\n        super._transferFrom(from, to, tokenId);\r\n\r\n        _removeTokenFromOwnerEnumeration(from, tokenId);\r\n\r\n        _addTokenToOwnerEnumeration(to, tokenId);\r\n    }\r\n\r\n    /**\r\n     * @dev Internal function to mint a new token\r\n     * Reverts if the given token ID already exists\r\n     * @param to address the beneficiary that will own the minted token\r\n     * @param tokenId uint256 ID of the token to be minted\r\n     */\r\n    function _mint(address to, uint256 tokenId) internal {\r\n        super._mint(to, tokenId);\r\n\r\n        _addTokenToOwnerEnumeration(to, tokenId);\r\n\r\n        _addTokenToAllTokensEnumeration(tokenId);\r\n    }\r\n\r\n    /**\r\n     * @dev Gets the list of token IDs of the requested owner\r\n     * @param owner address owning the tokens\r\n     * @return uint256[] List of token IDs owned by the requested address\r\n     */\r\n    function _tokensOfOwner(address owner) internal view returns (uint256[] storage) {\r\n        return _ownedTokens[owner];\r\n    }\r\n\r\n    /**\r\n     * @dev Private function to add a token to this extension's ownership-tracking data structures.\r\n     * @param to address representing the new owner of the given token ID\r\n     * @param tokenId uint256 ID of the token to be added to the tokens list of the given address\r\n     */\r\n    function _addTokenToOwnerEnumeration(address to, uint256 tokenId) private {\r\n        _ownedTokensIndex[tokenId] = _ownedTokens[to].length;\r\n        _ownedTokens[to].push(tokenId);\r\n    }\r\n\r\n    /**\r\n     * @dev Private function to add a token to this extension's token tracking data structures.\r\n     * @param tokenId uint256 ID of the token to be added to the tokens list\r\n     */\r\n    function _addTokenToAllTokensEnumeration(uint256 tokenId) private {\r\n        _allTokensIndex[tokenId] = _allTokens.length;\r\n        _allTokens.push(tokenId);\r\n    }\r\n\r\n    /**\r\n     * @dev Private function to remove a token from this extension's ownership-tracking data structures. Note that\r\n     * while the token is not assigned a new owner, the _ownedTokensIndex mapping is _not_ updated: this allows for\r\n     * gas optimizations e.g. when performing a transfer operation (avoiding double writes).\r\n     * This has O(1) time complexity, but alters the order of the _ownedTokens array.\r\n     * @param from address representing the previous owner of the given token ID\r\n     * @param tokenId uint256 ID of the token to be removed from the tokens list of the given address\r\n     */\r\n    function _removeTokenFromOwnerEnumeration(address from, uint256 tokenId) private {\r\n        // To prevent a gap in from's tokens array, we store the last token in the index of the token to delete, and\r\n        // then delete the last slot (swap and pop).\r\n\r\n        uint256 lastTokenIndex = _ownedTokens[from].length.sub(1);\r\n        uint256 tokenIndex = _ownedTokensIndex[tokenId];\r\n\r\n        // When the token to delete is the last token, the swap operation is unnecessary\r\n        if (tokenIndex != lastTokenIndex) {\r\n            uint256 lastTokenId = _ownedTokens[from][lastTokenIndex];\r\n\r\n            _ownedTokens[from][tokenIndex] = lastTokenId; // Move the last token to the slot of the to-delete token\r\n            _ownedTokensIndex[lastTokenId] = tokenIndex; // Update the moved token's index\r\n        }\r\n\r\n        // This also deletes the contents at the last position of the array\r\n        _ownedTokens[from].length--;\r\n\r\n        // Note that _ownedTokensIndex[tokenId] hasn't been cleared: it still points to the old slot (now occupied by\r\n        // lastTokenId, or just over the end of the array if the token was the last one).\r\n    }\r\n\r\n    /**\r\n     * @dev Private function to remove a token from this extension's token tracking data structures.\r\n     * This has O(1) time complexity, but alters the order of the _allTokens array.\r\n     * @param tokenId uint256 ID of the token to be removed from the tokens list\r\n     */\r\n    function _removeTokenFromAllTokensEnumeration(uint256 tokenId) private {\r\n        // To prevent a gap in the tokens array, we store the last token in the index of the token to delete, and\r\n        // then delete the last slot (swap and pop).\r\n\r\n        uint256 lastTokenIndex = _allTokens.length.sub(1);\r\n        uint256 tokenIndex = _allTokensIndex[tokenId];\r\n\r\n        // When the token to delete is the last token, the swap operation is unnecessary. However, since this occurs so\r\n        // rarely (when the last minted token is burnt) that we still do the swap here to avoid the gas cost of adding\r\n        // an 'if' statement (like in _removeTokenFromOwnerEnumeration)\r\n        uint256 lastTokenId = _allTokens[lastTokenIndex];\r\n\r\n        _allTokens[tokenIndex] = lastTokenId; // Move the last token to the slot of the to-delete token\r\n        _allTokensIndex[lastTokenId] = tokenIndex; // Update the moved token's index\r\n\r\n        // This also deletes the contents at the last position of the array\r\n        _allTokens.length--;\r\n        _allTokensIndex[tokenId] = 0;\r\n    }\r\n}\r\n\r\ncontract ERC721Metadata is ERC721Enumerable, usingOraclize {\r\n    \r\n    // TODO: Create private vars for token _name, _symbol, and _baseTokenURI (string)\r\n    string private _name;\r\n    string private _symbol;\r\n    string private _baseTokenURI;\r\n\r\n    // TODO: create private mapping of tokenId's to token uri's called '_tokenURIs'\r\n    mapping (uint256 => string) private _tokenURIs;\r\n\r\n    bytes4 private constant _INTERFACE_ID_ERC721_METADATA = 0x5b5e139f;\r\n    /*\r\n     * 0x5b5e139f ===\r\n     *     bytes4(keccak256('name()')) ^\r\n     *     bytes4(keccak256('symbol()')) ^\r\n     *     bytes4(keccak256('tokenURI(uint256)'))\r\n     */\r\n\r\n\r\n    constructor (string memory name, string memory symbol, string memory baseTokenURI) public {\r\n        // TODO: set instance var values\r\n        _name = name;\r\n        _symbol = symbol;\r\n        _baseTokenURI = baseTokenURI;\r\n\r\n        _registerInterface(_INTERFACE_ID_ERC721_METADATA);\r\n    }\r\n\r\n    // TODO: create external getter functions for name, symbol, and baseTokenURI\r\n    function name() external view returns (string memory) {\r\n        return _name;\r\n    }\r\n\r\n    function symbol() external view returns (string memory) {\r\n        return _symbol;\r\n    }\r\n\r\n    function getBaseTokenURI() external view returns(string memory) {\r\n        return _baseTokenURI;\r\n    }\r\n\r\n    function tokenURI(uint256 tokenId) external view returns (string memory) {\r\n        require(_exists(tokenId));\r\n        return _tokenURIs[tokenId];\r\n    }\r\n\r\n    // TODO: Create an internal function to set the tokenURI of a specified tokenId\r\n    // It should be the _baseTokenURI + the tokenId in string form\r\n    // TIP #1: use strConcat() from the imported oraclizeAPI lib to set the complete token URI\r\n    // TIP #2: you can also use uint2str() to convert a uint to a string\r\n        // see https://github.com/oraclize/ethereum-api/blob/master/oraclizeAPI_0.5.sol for strConcat()\r\n    // require the token exists before setting\r\n    function setTokenURI(uint256 tokenId) internal {\r\n        require(_exists(tokenId));\r\n        _tokenURIs[tokenId] = strConcat(_baseTokenURI, uint2str(tokenId));\r\n    }\r\n}\r\n\r\n//  TODO's: Create CustomERC721Token contract that inherits from the ERC721Metadata contract. You can name this contract as you please\r\n//  1) Pass in appropriate values for the inherited ERC721Metadata contract\r\n//      - make the base token uri: https://s3-us-west-2.amazonaws.com/udacity-blockchain/capstone/\r\ncontract RealEstateToken is ERC721Metadata(\"Realestoken\", \"RST\", \"https://s3-us-west-2.amazonaws.com/udacity-blockchain/capstone/\") {\r\n    //  2) create a public mint() that does the following:\r\n    //      -can only be executed by the contract owner\r\n    //      -takes in a 'to' address, tokenId, and tokenURI as parameters\r\n    //      -returns a true boolean upon completion of the function\r\n    //      -calls the superclass mint and setTokenURI functions\r\n    function mint(address to, uint256 tokenId) public onlyOwner returns (bool) {\r\n        _mint(to, tokenId);\r\n        setTokenURI(tokenId);\r\n        return true;\r\n    }\r\n}\r\n",
  "sourcePath": "D:\\Code\\property-blockchain\\eth-contracts\\contracts\\ERC721Mintable.sol",
  "compiler": {
    "name": "solc",
    "version": "0.5.17+commit.d19bba13.Emscripten.clang"
  },
  "schemaVersion": "3.4.3",
  "updatedAt": "2022-01-16T10:46:21.078Z",
  "devdoc": {
    "methods": {
      "isApprovedForAll(address,address)": {
        "details": "Tells whether an operator is approved by a given owner",
        "params": {
          "operator": "operator address which you want to query the approval of",
          "owner": "owner address which you want to query the approval of"
        },
        "return": "bool whether the given operator is approved by the given owner"
      },
      "setApprovalForAll(address,bool)": {
        "details": "Sets or unsets the approval of a given operator An operator is allowed to transfer all tokens of the sender on their behalf",
        "params": {
          "approved": "representing the status of the approval to be set",
          "to": "operator address to set the approval"
        }
      },
      "supportsInterface(bytes4)": {
        "details": "implement supportsInterface(bytes4) using a lookup table"
      },
      "tokenByIndex(uint256)": {
        "details": "Gets the token ID at a given index of all the tokens in this contract Reverts if the index is greater or equal to the total number of tokens",
        "params": {
          "index": "uint256 representing the index to be accessed of the tokens list"
        },
        "return": "uint256 token ID at the given index of the tokens list"
      },
      "tokenOfOwnerByIndex(address,uint256)": {
        "details": "Gets the token ID at a given index of the tokens list of the requested owner",
        "params": {
          "index": "uint256 representing the index to be accessed of the requested tokens list",
          "owner": "address owning the tokens list to be accessed"
        },
        "return": "uint256 token ID at the given index of the tokens list owned by the requested address"
      },
      "totalSupply()": {
        "details": "Gets the total amount of tokens stored by the contract",
        "return": "uint256 representing the total amount of tokens"
      }
    }
  },
  "userdoc": {
    "methods": {}
  }
}